{
  "fileName": "MultiSig.sol",
  "contractName": "MultiSig",
  "source": "// SPDX-License-Identifier: UNLICENSED\n\npragma solidity 0.7.4;\n\ncontract MultiSig {\n    address[] public owners;\n    uint public numConfirmationsRequired;\n    Transaction[] public transactions;\n    \n    struct Transaction {\n        address to;\n        uint value;\n        bytes data;\n        bool executed;\n        uint numConfirmations;\n    }\n    \n    mapping (address => bool) public isOwner;\n    mapping (uint => mapping (address => bool)) public isConfirmed;\n    \n    modifier onlyOwner {\n    require(isOwner[msg.sender], \"You are not allowed.\");\n    _;\n    }\n  \n    modifier txExists(uint _txIndex) {\n        require(_txIndex < transactions.length, \"Tx does not exist.\");\n        _;\n    }\n  \n    modifier notExecuted(uint _txIndex) {\n        require(!transactions[_txIndex].executed, \"Tx already executed.\");\n        _;\n    }\n    \n    modifier notConfirmed(uint _txIndex) {\n        require(!isConfirmed[_txIndex][msg.sender], \"Tx already confirmed.\");\n        _;\n    }\n    \n    event Deposit(address indexed sender, uint amount, uint balance);\n    event SubmitTransaction(address indexed owner, uint txIndex, address indexed to, uint value, bytes data);\n    event ConfirmTransaction(address indexed owner, uint indexed txIndex);\n    event RevokeTransaction(address indexed owner, uint indexed txIndex);\n    event ExecuteTransaction(address indexed owner, uint indexed txIndex);\n    \n    \n    constructor (address[] memory _owners, uint _numConfirmationsRequired) {\n        require(_owners.length > 0, \"owners required.\");\n        require(_numConfirmationsRequired > 0 && _numConfirmationsRequired <= _owners.length, \"Invalid number of required confirmations\");\n        \n        for (uint8 i = 0; i < _owners.length; i++) {\n            address owner = _owners[i];\n            \n            require(owner != address(0), \"Invalid address\");\n            require(!isOwner[owner], \"Owner not unique\");\n            \n            isOwner[owner] = true;\n            owners.push(owner);\n        }\n        \n        numConfirmationsRequired = _numConfirmationsRequired;\n  }\n  \n  receive() payable external {\n      emit Deposit(msg.sender, msg.value, address(this).balance);\n  }\n  \n  function submitTransaction(address _to, uint _value, bytes memory _data) external onlyOwner {\n      uint txIndex = transactions.length;\n      \n      transactions.push(Transaction({\n          to: _to,\n          value: _value,\n          data: _data,\n          executed: false,\n          numConfirmations: 0\n      }));\n      \n      emit SubmitTransaction(msg.sender, txIndex, _to, _value, _data);\n  }\n\n  function confirmTransaction(uint _txIndex)\n        external\n        onlyOwner\n        txExists(_txIndex)\n        notExecuted(_txIndex)\n        notConfirmed(_txIndex)\n    {\n        Transaction storage transaction = transactions[_txIndex];\n        transaction.numConfirmations += 1;\n        isConfirmed[_txIndex][msg.sender] = true;\n\n        emit ConfirmTransaction(msg.sender, _txIndex);\n    }\n  \n  function executeTransaction(uint _txIndex)\n        external\n        onlyOwner\n        txExists(_txIndex)\n        notExecuted(_txIndex)\n    {\n        Transaction storage transaction = transactions[_txIndex];\n\n        require(\n            transaction.numConfirmations >= numConfirmationsRequired,\n            \"cannot execute tx\"\n        );\n\n        transaction.executed = true;\n\n        (bool success, ) = transaction.to.call{value: transaction.value}(transaction.data);\n        require(success, \"tx failed\");\n\n        emit ExecuteTransaction(msg.sender, _txIndex);\n    }\n\n  function revokeConfirmation(uint _txIndex) \n        external\n        onlyOwner\n        txExists(_txIndex)\n        notExecuted(_txIndex)\n  {\n        Transaction memory transaction = transactions[_txIndex];\n        require(isConfirmed[_txIndex][msg.sender], \"Tx not confirmed.\");\n        transaction.numConfirmations -= 1;\n        isConfirmed[_txIndex][msg.sender] = false;\n\n        emit RevokeTransaction(msg.sender, _txIndex);\n  }\n\n  function getOwners() external view returns(address[] memory) {\n      return owners;\n  }\n\n  function getTransactionCount() external view returns(uint) {\n      return transactions.length;\n  }\n\n  function getTransaction(uint _txIndex)\n        public\n        view\n        returns (address to, uint value, bytes memory data, bool executed, uint numConfirmations)\n    {\n        Transaction storage transaction = transactions[_txIndex];\n\n        return (\n            transaction.to,\n            transaction.value,\n            transaction.data,\n            transaction.executed,\n            transaction.numConfirmations\n        );\n    } \n    // [\"0x5B38Da6a701c568545dCfcB03FcB875f56beddC4\", \"0xAb8483F64d9C6d1EcF9b849Ae677dD3315835cb2\",\"0x4B20993Bc481177ec7E8f571ceCaE8A9e22C02db\"]\n    // [\"0x4B0897b0513fdC7C541B6d9D7E929C4e5364D2dB\", \"1000000000000000000\", \"0x0000000000000000000000000000000000000000\"]\n}",
  "sourcePath": "contracts/MultiSig.sol",
  "abi": [
    {
      "inputs": [
        {
          "internalType": "address[]",
          "name": "_owners",
          "type": "address[]"
        },
        {
          "internalType": "uint256",
          "name": "_numConfirmationsRequired",
          "type": "uint256"
        }
      ],
      "stateMutability": "nonpayable",
      "type": "constructor"
    },
    {
      "anonymous": false,
      "inputs": [
        {
          "indexed": true,
          "internalType": "address",
          "name": "owner",
          "type": "address"
        },
        {
          "indexed": true,
          "internalType": "uint256",
          "name": "txIndex",
          "type": "uint256"
        }
      ],
      "name": "ConfirmTransaction",
      "type": "event"
    },
    {
      "anonymous": false,
      "inputs": [
        {
          "indexed": true,
          "internalType": "address",
          "name": "sender",
          "type": "address"
        },
        {
          "indexed": false,
          "internalType": "uint256",
          "name": "amount",
          "type": "uint256"
        },
        {
          "indexed": false,
          "internalType": "uint256",
          "name": "balance",
          "type": "uint256"
        }
      ],
      "name": "Deposit",
      "type": "event"
    },
    {
      "anonymous": false,
      "inputs": [
        {
          "indexed": true,
          "internalType": "address",
          "name": "owner",
          "type": "address"
        },
        {
          "indexed": true,
          "internalType": "uint256",
          "name": "txIndex",
          "type": "uint256"
        }
      ],
      "name": "ExecuteTransaction",
      "type": "event"
    },
    {
      "anonymous": false,
      "inputs": [
        {
          "indexed": true,
          "internalType": "address",
          "name": "owner",
          "type": "address"
        },
        {
          "indexed": true,
          "internalType": "uint256",
          "name": "txIndex",
          "type": "uint256"
        }
      ],
      "name": "RevokeTransaction",
      "type": "event"
    },
    {
      "anonymous": false,
      "inputs": [
        {
          "indexed": true,
          "internalType": "address",
          "name": "owner",
          "type": "address"
        },
        {
          "indexed": false,
          "internalType": "uint256",
          "name": "txIndex",
          "type": "uint256"
        },
        {
          "indexed": true,
          "internalType": "address",
          "name": "to",
          "type": "address"
        },
        {
          "indexed": false,
          "internalType": "uint256",
          "name": "value",
          "type": "uint256"
        },
        {
          "indexed": false,
          "internalType": "bytes",
          "name": "data",
          "type": "bytes"
        }
      ],
      "name": "SubmitTransaction",
      "type": "event"
    },
    {
      "inputs": [
        {
          "internalType": "uint256",
          "name": "_txIndex",
          "type": "uint256"
        }
      ],
      "name": "confirmTransaction",
      "outputs": [],
      "stateMutability": "nonpayable",
      "type": "function"
    },
    {
      "inputs": [
        {
          "internalType": "uint256",
          "name": "_txIndex",
          "type": "uint256"
        }
      ],
      "name": "executeTransaction",
      "outputs": [],
      "stateMutability": "nonpayable",
      "type": "function"
    },
    {
      "inputs": [],
      "name": "getOwners",
      "outputs": [
        {
          "internalType": "address[]",
          "name": "",
          "type": "address[]"
        }
      ],
      "stateMutability": "view",
      "type": "function"
    },
    {
      "inputs": [
        {
          "internalType": "uint256",
          "name": "_txIndex",
          "type": "uint256"
        }
      ],
      "name": "getTransaction",
      "outputs": [
        {
          "internalType": "address",
          "name": "to",
          "type": "address"
        },
        {
          "internalType": "uint256",
          "name": "value",
          "type": "uint256"
        },
        {
          "internalType": "bytes",
          "name": "data",
          "type": "bytes"
        },
        {
          "internalType": "bool",
          "name": "executed",
          "type": "bool"
        },
        {
          "internalType": "uint256",
          "name": "numConfirmations",
          "type": "uint256"
        }
      ],
      "stateMutability": "view",
      "type": "function"
    },
    {
      "inputs": [],
      "name": "getTransactionCount",
      "outputs": [
        {
          "internalType": "uint256",
          "name": "",
          "type": "uint256"
        }
      ],
      "stateMutability": "view",
      "type": "function"
    },
    {
      "inputs": [
        {
          "internalType": "uint256",
          "name": "",
          "type": "uint256"
        },
        {
          "internalType": "address",
          "name": "",
          "type": "address"
        }
      ],
      "name": "isConfirmed",
      "outputs": [
        {
          "internalType": "bool",
          "name": "",
          "type": "bool"
        }
      ],
      "stateMutability": "view",
      "type": "function"
    },
    {
      "inputs": [
        {
          "internalType": "address",
          "name": "",
          "type": "address"
        }
      ],
      "name": "isOwner",
      "outputs": [
        {
          "internalType": "bool",
          "name": "",
          "type": "bool"
        }
      ],
      "stateMutability": "view",
      "type": "function"
    },
    {
      "inputs": [],
      "name": "numConfirmationsRequired",
      "outputs": [
        {
          "internalType": "uint256",
          "name": "",
          "type": "uint256"
        }
      ],
      "stateMutability": "view",
      "type": "function"
    },
    {
      "inputs": [
        {
          "internalType": "uint256",
          "name": "",
          "type": "uint256"
        }
      ],
      "name": "owners",
      "outputs": [
        {
          "internalType": "address",
          "name": "",
          "type": "address"
        }
      ],
      "stateMutability": "view",
      "type": "function"
    },
    {
      "inputs": [
        {
          "internalType": "uint256",
          "name": "_txIndex",
          "type": "uint256"
        }
      ],
      "name": "revokeConfirmation",
      "outputs": [],
      "stateMutability": "nonpayable",
      "type": "function"
    },
    {
      "inputs": [
        {
          "internalType": "address",
          "name": "_to",
          "type": "address"
        },
        {
          "internalType": "uint256",
          "name": "_value",
          "type": "uint256"
        },
        {
          "internalType": "bytes",
          "name": "_data",
          "type": "bytes"
        }
      ],
      "name": "submitTransaction",
      "outputs": [],
      "stateMutability": "nonpayable",
      "type": "function"
    },
    {
      "inputs": [
        {
          "internalType": "uint256",
          "name": "",
          "type": "uint256"
        }
      ],
      "name": "transactions",
      "outputs": [
        {
          "internalType": "address",
          "name": "to",
          "type": "address"
        },
        {
          "internalType": "uint256",
          "name": "value",
          "type": "uint256"
        },
        {
          "internalType": "bytes",
          "name": "data",
          "type": "bytes"
        },
        {
          "internalType": "bool",
          "name": "executed",
          "type": "bool"
        },
        {
          "internalType": "uint256",
          "name": "numConfirmations",
          "type": "uint256"
        }
      ],
      "stateMutability": "view",
      "type": "function"
    },
    {
      "stateMutability": "payable",
      "type": "receive"
    }
  ],
  "bytecode": "0x60806040523480156200001157600080fd5b5060405162001eb438038062001eb4833981810160405260408110156200003757600080fd5b81019080805160405193929190846401000000008211156200005857600080fd5b838201915060208201858111156200006f57600080fd5b82518660208202830111640100000000821117156200008d57600080fd5b8083526020830192505050908051906020019060200280838360005b83811015620000c6578082015181840152602081019050620000a9565b5050505090500160405260200180519060200190929190505050600082511162000158576040517f08c379a00000000000000000000000000000000000000000000000000000000081526004018080602001828103825260108152602001807f6f776e6572732072657175697265642e0000000000000000000000000000000081525060200191505060405180910390fd5b6000811180156200016a575081518111155b620001c1576040517f08c379a000000000000000000000000000000000000000000000000000000000815260040180806020018281038252602881526020018062001e8c6028913960400191505060405180910390fd5b60005b82518160ff1610156200041c576000838260ff1681518110620001e357fe5b60200260200101519050600073ffffffffffffffffffffffffffffffffffffffff168173ffffffffffffffffffffffffffffffffffffffff16141562000291576040517f08c379a000000000000000000000000000000000000000000000000000000000815260040180806020018281038252600f8152602001807f496e76616c69642061646472657373000000000000000000000000000000000081525060200191505060405180910390fd5b600360008273ffffffffffffffffffffffffffffffffffffffff1673ffffffffffffffffffffffffffffffffffffffff16815260200190815260200160002060009054906101000a900460ff161562000352576040517f08c379a00000000000000000000000000000000000000000000000000000000081526004018080602001828103825260108152602001807f4f776e6572206e6f7420756e697175650000000000000000000000000000000081525060200191505060405180910390fd5b6001600360008373ffffffffffffffffffffffffffffffffffffffff1673ffffffffffffffffffffffffffffffffffffffff16815260200190815260200160002060006101000a81548160ff0219169083151502179055506000819080600181540180825580915050600190039060005260206000200160009091909190916101000a81548173ffffffffffffffffffffffffffffffffffffffff021916908373ffffffffffffffffffffffffffffffffffffffff160217905550508080600101915050620001c4565b50806001819055505050611a5680620004366000396000f3fe6080604052600436106100ab5760003560e01c80639ace38c2116100645780639ace38c2146103af578063a0e67e2b14610497578063c01a8c8414610503578063c64274741461053e578063d0549b8514610630578063ee22610b1461065b5761011f565b8063025e7c271461012457806320ea8d86146101895780632e7700f0146101c45780632f54bf6e146101ef57806333ea3dc81461025657806380f59a651461033e5761011f565b3661011f573373ffffffffffffffffffffffffffffffffffffffff167f90890809c654f11d6e72a28fa60149770a0d11ec6c92319d6ceb2bb0a4ea1a15343073ffffffffffffffffffffffffffffffffffffffff1631604051808381526020018281526020019250505060405180910390a2005b600080fd5b34801561013057600080fd5b5061015d6004803603602081101561014757600080fd5b8101908080359060200190929190505050610696565b604051808273ffffffffffffffffffffffffffffffffffffffff16815260200191505060405180910390f35b34801561019557600080fd5b506101c2600480360360208110156101ac57600080fd5b81019080803590602001909291905050506106d5565b005b3480156101d057600080fd5b506101d9610b9a565b6040518082815260200191505060405180910390f35b3480156101fb57600080fd5b5061023e6004803603602081101561021257600080fd5b81019080803573ffffffffffffffffffffffffffffffffffffffff169060200190929190505050610ba7565b60405180821515815260200191505060405180910390f35b34801561026257600080fd5b5061028f6004803603602081101561027957600080fd5b8101908080359060200190929190505050610bc7565b604051808673ffffffffffffffffffffffffffffffffffffffff168152602001858152602001806020018415158152602001838152602001828103825285818151815260200191508051906020019080838360005b838110156102ff5780820151818401526020810190506102e4565b50505050905090810190601f16801561032c5780820380516001836020036101000a031916815260200191505b50965050505050505060405180910390f35b34801561034a57600080fd5b506103976004803603604081101561036157600080fd5b8101908080359060200190929190803573ffffffffffffffffffffffffffffffffffffffff169060200190929190505050610ce3565b60405180821515815260200191505060405180910390f35b3480156103bb57600080fd5b506103e8600480360360208110156103d257600080fd5b8101908080359060200190929190505050610d12565b604051808673ffffffffffffffffffffffffffffffffffffffff168152602001858152602001806020018415158152602001838152602001828103825285818151815260200191508051906020019080838360005b8381101561045857808201518184015260208101905061043d565b50505050905090810190601f1680156104855780820380516001836020036101000a031916815260200191505b50965050505050505060405180910390f35b3480156104a357600080fd5b506104ac610e1d565b6040518080602001828103825283818151815260200191508051906020019060200280838360005b838110156104ef5780820151818401526020810190506104d4565b505050509050019250505060405180910390f35b34801561050f57600080fd5b5061053c6004803603602081101561052657600080fd5b8101908080359060200190929190505050610eab565b005b34801561054a57600080fd5b5061062e6004803603606081101561056157600080fd5b81019080803573ffffffffffffffffffffffffffffffffffffffff16906020019092919080359060200190929190803590602001906401000000008111156105a857600080fd5b8201836020820111156105ba57600080fd5b803590602001918460018302840111640100000000831117156105dc57600080fd5b91908080601f016020809104026020016040519081016040528093929190818152602001838380828437600081840152601f19601f82011690508083019250505050505050919291929050505061123d565b005b34801561063c57600080fd5b506106456114ec565b6040518082815260200191505060405180910390f35b34801561066757600080fd5b506106946004803603602081101561067e57600080fd5b81019080803590602001909291905050506114f2565b005b600081815481106106a657600080fd5b906000526020600020016000915054906101000a900473ffffffffffffffffffffffffffffffffffffffff1681565b600360003373ffffffffffffffffffffffffffffffffffffffff1673ffffffffffffffffffffffffffffffffffffffff16815260200190815260200160002060009054906101000a900460ff16610794576040517f08c379a00000000000000000000000000000000000000000000000000000000081526004018080602001828103825260148152602001807f596f7520617265206e6f7420616c6c6f7765642e00000000000000000000000081525060200191505060405180910390fd5b80600280549050811061080f576040517f08c379a00000000000000000000000000000000000000000000000000000000081526004018080602001828103825260128152602001807f547820646f6573206e6f742065786973742e000000000000000000000000000081525060200191505060405180910390fd5b816002818154811061081d57fe5b906000526020600020906005020160030160009054906101000a900460ff16156108af576040517f08c379a00000000000000000000000000000000000000000000000000000000081526004018080602001828103825260148152602001807f547820616c72656164792065786563757465642e00000000000000000000000081525060200191505060405180910390fd5b6108b761192e565b600284815481106108c457fe5b90600052602060002090600502016040518060a00160405290816000820160009054906101000a900473ffffffffffffffffffffffffffffffffffffffff1673ffffffffffffffffffffffffffffffffffffffff1673ffffffffffffffffffffffffffffffffffffffff16815260200160018201548152602001600282018054600181600116156101000203166002900480601f0160208091040260200160405190810160405280929190818152602001828054600181600116156101000203166002900480156109d65780601f106109ab576101008083540402835291602001916109d6565b820191906000526020600020905b8154815290600101906020018083116109b957829003601f168201915b505050505081526020016003820160009054906101000a900460ff1615151515815260200160048201548152505090506004600085815260200190815260200160002060003373ffffffffffffffffffffffffffffffffffffffff1673ffffffffffffffffffffffffffffffffffffffff16815260200190815260200160002060009054906101000a900460ff16610ad6576040517f08c379a00000000000000000000000000000000000000000000000000000000081526004018080602001828103825260118152602001807f5478206e6f7420636f6e6669726d65642e00000000000000000000000000000081525060200191505060405180910390fd5b600181608001818151039150818152505060006004600086815260200190815260200160002060003373ffffffffffffffffffffffffffffffffffffffff1673ffffffffffffffffffffffffffffffffffffffff16815260200190815260200160002060006101000a81548160ff021916908315150217905550833373ffffffffffffffffffffffffffffffffffffffff167f1ad870073a851011d852bccd8634c29c7c0ac2265ba96d2bab01285001a465a860405160405180910390a350505050565b6000600280549050905090565b60036020528060005260406000206000915054906101000a900460ff1681565b6000806060600080600060028781548110610bde57fe5b906000526020600020906005020190508060000160009054906101000a900473ffffffffffffffffffffffffffffffffffffffff168160010154826002018360030160009054906101000a900460ff168460040154828054600181600116156101000203166002900480601f016020809104026020016040519081016040528092919081815260200182805460018160011615610100020316600290048015610cc85780601f10610c9d57610100808354040283529160200191610cc8565b820191906000526020600020905b815481529060010190602001808311610cab57829003601f168201915b50505050509250955095509550955095505091939590929450565b60046020528160005260406000206020528060005260406000206000915091509054906101000a900460ff1681565b60028181548110610d2257600080fd5b90600052602060002090600502016000915090508060000160009054906101000a900473ffffffffffffffffffffffffffffffffffffffff1690806001015490806002018054600181600116156101000203166002900480601f016020809104026020016040519081016040528092919081815260200182805460018160011615610100020316600290048015610dfa5780601f10610dcf57610100808354040283529160200191610dfa565b820191906000526020600020905b815481529060010190602001808311610ddd57829003601f168201915b5050505050908060030160009054906101000a900460ff16908060040154905085565b60606000805480602002602001604051908101604052809291908181526020018280548015610ea157602002820191906000526020600020905b8160009054906101000a900473ffffffffffffffffffffffffffffffffffffffff1673ffffffffffffffffffffffffffffffffffffffff1681526020019060010190808311610e57575b5050505050905090565b600360003373ffffffffffffffffffffffffffffffffffffffff1673ffffffffffffffffffffffffffffffffffffffff16815260200190815260200160002060009054906101000a900460ff16610f6a576040517f08c379a00000000000000000000000000000000000000000000000000000000081526004018080602001828103825260148152602001807f596f7520617265206e6f7420616c6c6f7765642e00000000000000000000000081525060200191505060405180910390fd5b806002805490508110610fe5576040517f08c379a00000000000000000000000000000000000000000000000000000000081526004018080602001828103825260128152602001807f547820646f6573206e6f742065786973742e000000000000000000000000000081525060200191505060405180910390fd5b8160028181548110610ff357fe5b906000526020600020906005020160030160009054906101000a900460ff1615611085576040517f08c379a00000000000000000000000000000000000000000000000000000000081526004018080602001828103825260148152602001807f547820616c72656164792065786563757465642e00000000000000000000000081525060200191505060405180910390fd5b826004600082815260200190815260200160002060003373ffffffffffffffffffffffffffffffffffffffff1673ffffffffffffffffffffffffffffffffffffffff16815260200190815260200160002060009054906101000a900460ff1615611157576040517f08c379a00000000000000000000000000000000000000000000000000000000081526004018080602001828103825260158152602001807f547820616c726561647920636f6e6669726d65642e000000000000000000000081525060200191505060405180910390fd5b60006002858154811061116657fe5b906000526020600020906005020190506001816004016000828254019250508190555060016004600087815260200190815260200160002060003373ffffffffffffffffffffffffffffffffffffffff1673ffffffffffffffffffffffffffffffffffffffff16815260200190815260200160002060006101000a81548160ff021916908315150217905550843373ffffffffffffffffffffffffffffffffffffffff167f5cbe105e36805f7820e291f799d5794ff948af2a5f664e580382defb6339004160405160405180910390a35050505050565b600360003373ffffffffffffffffffffffffffffffffffffffff1673ffffffffffffffffffffffffffffffffffffffff16815260200190815260200160002060009054906101000a900460ff166112fc576040517f08c379a00000000000000000000000000000000000000000000000000000000081526004018080602001828103825260148152602001807f596f7520617265206e6f7420616c6c6f7765642e00000000000000000000000081525060200191505060405180910390fd5b6000600280549050905060026040518060a001604052808673ffffffffffffffffffffffffffffffffffffffff1681526020018581526020018481526020016000151581526020016000815250908060018154018082558091505060019003906000526020600020906005020160009091909190915060008201518160000160006101000a81548173ffffffffffffffffffffffffffffffffffffffff021916908373ffffffffffffffffffffffffffffffffffffffff1602179055506020820151816001015560408201518160020190805190602001906113df929190611975565b5060608201518160030160006101000a81548160ff0219169083151502179055506080820151816004015550508373ffffffffffffffffffffffffffffffffffffffff163373ffffffffffffffffffffffffffffffffffffffff167fd5a05bf70715ad82a09a756320284a1b54c9ff74cd0f8cce6219e79b563fe59d8386866040518084815260200183815260200180602001828103825283818151815260200191508051906020019080838360005b838110156114aa57808201518184015260208101905061148f565b50505050905090810190601f1680156114d75780820380516001836020036101000a031916815260200191505b5094505050505060405180910390a350505050565b60015481565b600360003373ffffffffffffffffffffffffffffffffffffffff1673ffffffffffffffffffffffffffffffffffffffff16815260200190815260200160002060009054906101000a900460ff166115b1576040517f08c379a00000000000000000000000000000000000000000000000000000000081526004018080602001828103825260148152602001807f596f7520617265206e6f7420616c6c6f7765642e00000000000000000000000081525060200191505060405180910390fd5b80600280549050811061162c576040517f08c379a00000000000000000000000000000000000000000000000000000000081526004018080602001828103825260128152602001807f547820646f6573206e6f742065786973742e000000000000000000000000000081525060200191505060405180910390fd5b816002818154811061163a57fe5b906000526020600020906005020160030160009054906101000a900460ff16156116cc576040517f08c379a00000000000000000000000000000000000000000000000000000000081526004018080602001828103825260148152602001807f547820616c72656164792065786563757465642e00000000000000000000000081525060200191505060405180910390fd5b6000600284815481106116db57fe5b9060005260206000209060050201905060015481600401541015611767576040517f08c379a00000000000000000000000000000000000000000000000000000000081526004018080602001828103825260118152602001807f63616e6e6f74206578656375746520747800000000000000000000000000000081525060200191505060405180910390fd5b60018160030160006101000a81548160ff02191690831515021790555060008160000160009054906101000a900473ffffffffffffffffffffffffffffffffffffffff1673ffffffffffffffffffffffffffffffffffffffff1682600101548360020160405180828054600181600116156101000203166002900480156118255780601f10611803576101008083540402835291820191611825565b820191906000526020600020905b815481529060010190602001808311611811575b505091505060006040518083038185875af1925050503d8060008114611867576040519150601f19603f3d011682016040523d82523d6000602084013e61186c565b606091505b50509050806118e3576040517f08c379a00000000000000000000000000000000000000000000000000000000081526004018080602001828103825260098152602001807f7478206661696c6564000000000000000000000000000000000000000000000081525060200191505060405180910390fd5b843373ffffffffffffffffffffffffffffffffffffffff167f5445f318f4f5fcfb66592e68e0cc5822aa15664039bd5f0ffde24c5a8142b1ac60405160405180910390a35050505050565b6040518060a00160405280600073ffffffffffffffffffffffffffffffffffffffff1681526020016000815260200160608152602001600015158152602001600081525090565b828054600181600116156101000203166002900490600052602060002090601f0160209004810192826119ab57600085556119f2565b82601f106119c457805160ff19168380011785556119f2565b828001600101855582156119f2579182015b828111156119f15782518255916020019190600101906119d6565b5b5090506119ff9190611a03565b5090565b5b80821115611a1c576000816000905550600101611a04565b509056fea2646970667358221220ed5c557e1488498150a376f58e35e291881bed54e46520fa294bd9801e905dbb64736f6c63430007040033496e76616c6964206e756d626572206f6620726571756972656420636f6e6669726d6174696f6e73",
  "compiler": {
    "name": "solc",
    "version": "0.7.4+commit.3f05b770.Emscripten.clang",
    "optimizer": {
      "enabled": false,
      "runs": 200
    },
    "evmVersion": "petersburg"
  }
}