{
  "fileName": "MultiSigV2.sol",
  "contractName": "MultisigV2",
  "source": "// SPDX-License-Identifier: UNLICENSED\n\npragma solidity 0.7.4;\n\ncontract MultisigV2 {\n    uint256 private sequenceId;\n    mapping(address => bool) public signers;\n\n    event Deposited(address from, uint256 value, bytes data);\n    event Transacted(\n        address msgSender, \n        address otherSigner, \n        bytes32 operation,\n        address toAddress,\n        uint256 value,\n        bytes data\n    );\n\n    modifier onlySigner {\n        require(signers[msg.sender], \"You are not allowed.\");\n        _;\n    }\n\n    constructor(address[] memory allowedSigners) {\n        require(allowedSigners.length == 3, \"Invalid number of signers.\");\n\n        for (uint8 i = 0; i < allowedSigners.length; i++) {\n            require(allowedSigners[i] != address(0), \"Invalid signer.\");\n            signers[allowedSigners[i]] = true;\n        }\n    }\n\n    receive() payable external {\n        if(msg.value > 0) {\n            emit Deposited(msg.sender, msg.value, msg.data);\n        }\n    }\n\n    function sendMultiSig(\n        address _toAddress,\n        uint256 _value,\n        bytes calldata _data,\n        uint256 _expireTime,\n        bytes calldata _signature\n    )\n        external\n        onlySigner\n    {\n        bytes32 operationHash = keccak256(\n            abi.encodePacked(\n                _toAddress,\n                _value,\n                _data,\n                _expireTime,\n                sequenceId\n            )\n        );\n\n        address otherSigner = verifyMultiSig(\n            operationHash,\n            _signature,\n            _expireTime\n        );\n\n        (bool success, ) = _toAddress.call{ value: _value }(_data);\n        require(success, \"Call execution failed\");\n\n        emit Transacted(msg.sender, otherSigner, operationHash, _toAddress, _value, _data);\n    }\n\n    function verifyMultiSig(\n        bytes32 operationHash,\n        bytes calldata signature,\n        uint256 expireTime\n    )\n        internal\n        returns (address)\n    {\n        address otherSigner = recoverAddressFromSignature(operationHash, signature);\n\n        require(expireTime >= block.timestamp, \"Transaction has expired.\");\n        sequenceId += 1;\n\n        require(signers[otherSigner], \"Invalid signer.\");\n        require(otherSigner != msg.sender, \"Invalid signer.\");\n\n        return otherSigner;\n    }\n\n    function recoverAddressFromSignature(\n        bytes32 operationHash,\n        bytes memory signature\n    ) \n        private \n        pure \n        returns (address) \n    {\n        require(signature.length == 65, \"Invalid signature - wrong length\");\n\n        // We need to unpack the signature, which is given as an array of 65 bytes (like eth.sign)\n        bytes32 r;\n        bytes32 s;\n        uint8 v;\n\n        assembly {\n        r := mload(add(signature, 32))\n        s := mload(add(signature, 64))\n        v := and(mload(add(signature, 65)), 255)\n        }\n        if (v < 27) {\n        v += 27; // Ethereum versions are 27 or 28 as opposed to 0 or 1 which is submitted by some signing libs\n        }\n\n        require(uint256(s) <= 0x7FFFFFFFFFFFFFFFFFFFFFFFFFFFFFFF5D576E7357A4501DDFE92F46681B20A0, \"ECDSA: invalid signature 's' value\");\n\n        return ecrecover(operationHash, v, r, s);\n    }\n}",
  "sourcePath": "contracts/MultiSigV2.sol",
  "abi": [
    {
      "inputs": [
        {
          "internalType": "address[]",
          "name": "allowedSigners",
          "type": "address[]"
        }
      ],
      "stateMutability": "nonpayable",
      "type": "constructor"
    },
    {
      "anonymous": false,
      "inputs": [
        {
          "indexed": false,
          "internalType": "address",
          "name": "from",
          "type": "address"
        },
        {
          "indexed": false,
          "internalType": "uint256",
          "name": "value",
          "type": "uint256"
        },
        {
          "indexed": false,
          "internalType": "bytes",
          "name": "data",
          "type": "bytes"
        }
      ],
      "name": "Deposited",
      "type": "event"
    },
    {
      "anonymous": false,
      "inputs": [
        {
          "indexed": false,
          "internalType": "address",
          "name": "msgSender",
          "type": "address"
        },
        {
          "indexed": false,
          "internalType": "address",
          "name": "otherSigner",
          "type": "address"
        },
        {
          "indexed": false,
          "internalType": "bytes32",
          "name": "operation",
          "type": "bytes32"
        },
        {
          "indexed": false,
          "internalType": "address",
          "name": "toAddress",
          "type": "address"
        },
        {
          "indexed": false,
          "internalType": "uint256",
          "name": "value",
          "type": "uint256"
        },
        {
          "indexed": false,
          "internalType": "bytes",
          "name": "data",
          "type": "bytes"
        }
      ],
      "name": "Transacted",
      "type": "event"
    },
    {
      "inputs": [
        {
          "internalType": "address",
          "name": "_toAddress",
          "type": "address"
        },
        {
          "internalType": "uint256",
          "name": "_value",
          "type": "uint256"
        },
        {
          "internalType": "bytes",
          "name": "_data",
          "type": "bytes"
        },
        {
          "internalType": "uint256",
          "name": "_expireTime",
          "type": "uint256"
        },
        {
          "internalType": "bytes",
          "name": "_signature",
          "type": "bytes"
        }
      ],
      "name": "sendMultiSig",
      "outputs": [],
      "stateMutability": "nonpayable",
      "type": "function"
    },
    {
      "inputs": [
        {
          "internalType": "address",
          "name": "",
          "type": "address"
        }
      ],
      "name": "signers",
      "outputs": [
        {
          "internalType": "bool",
          "name": "",
          "type": "bool"
        }
      ],
      "stateMutability": "view",
      "type": "function"
    },
    {
      "stateMutability": "payable",
      "type": "receive"
    }
  ],
  "bytecode": "0x608060405234801561001057600080fd5b50604051610c2a380380610c2a8339818101604052602081101561003357600080fd5b810190808051604051939291908464010000000082111561005357600080fd5b8382019150602082018581111561006957600080fd5b825186602082028301116401000000008211171561008657600080fd5b8083526020830192505050908051906020019060200280838360005b838110156100bd5780820151818401526020810190506100a2565b505050509050016040525050506003815114610141576040517f08c379a000000000000000000000000000000000000000000000000000000000815260040180806020018281038252601a8152602001807f496e76616c6964206e756d626572206f66207369676e6572732e00000000000081525060200191505060405180910390fd5b60005b81518160ff16101561028357600073ffffffffffffffffffffffffffffffffffffffff16828260ff168151811061017757fe5b602002602001015173ffffffffffffffffffffffffffffffffffffffff161415610209576040517f08c379a000000000000000000000000000000000000000000000000000000000815260040180806020018281038252600f8152602001807f496e76616c6964207369676e65722e000000000000000000000000000000000081525060200191505060405180910390fd5b6001806000848460ff168151811061021d57fe5b602002602001015173ffffffffffffffffffffffffffffffffffffffff1673ffffffffffffffffffffffffffffffffffffffff16815260200190815260200160002060006101000a81548160ff0219169083151502179055508080600101915050610144565b5050610996806102946000396000f3fe60806040526004361061002d5760003560e01c806349acb2db146100cd578063736c0d5b146101dc576100c8565b366100c85760003411156100c6577f6e89d517057028190560dd200cf6bf792842861353d1173761dfa362e1c133f03334600036604051808573ffffffffffffffffffffffffffffffffffffffff168152602001848152602001806020018281038252848482818152602001925080828437600081840152601f19601f8201169050808301925050509550505050505060405180910390a15b005b600080fd5b3480156100d957600080fd5b506101da600480360360a08110156100f057600080fd5b81019080803573ffffffffffffffffffffffffffffffffffffffff169060200190929190803590602001909291908035906020019064010000000081111561013757600080fd5b82018360208201111561014957600080fd5b8035906020019184600183028401116401000000008311171561016b57600080fd5b9091929391929390803590602001909291908035906020019064010000000081111561019657600080fd5b8201836020820111156101a857600080fd5b803590602001918460018302840111640100000000831117156101ca57600080fd5b9091929391929390505050610243565b005b3480156101e857600080fd5b5061022b600480360360208110156101ff57600080fd5b81019080803573ffffffffffffffffffffffffffffffffffffffff169060200190929190505050610544565b60405180821515815260200191505060405180910390f35b600160003373ffffffffffffffffffffffffffffffffffffffff1673ffffffffffffffffffffffffffffffffffffffff16815260200190815260200160002060009054906101000a900460ff16610302576040517f08c379a00000000000000000000000000000000000000000000000000000000081526004018080602001828103825260148152602001807f596f7520617265206e6f7420616c6c6f7765642e00000000000000000000000081525060200191505060405180910390fd5b60008787878787600054604051602001808773ffffffffffffffffffffffffffffffffffffffff1660601b8152601401868152602001858580828437808301925050508381526020018281526020019650505050505050604051602081830303815290604052805190602001209050600061037f82858588610564565b905060008973ffffffffffffffffffffffffffffffffffffffff1689898960405180838380828437808301925050509250505060006040518083038185875af1925050503d80600081146103ef576040519150601f19603f3d011682016040523d82523d6000602084013e6103f4565b606091505b505090508061046b576040517f08c379a00000000000000000000000000000000000000000000000000000000081526004018080602001828103825260158152602001807f43616c6c20657865637574696f6e206661696c6564000000000000000000000081525060200191505060405180910390fd5b7f59bed9ab5d78073465dd642a9e3e76dfdb7d53bcae9d09df7d0b8f5234d5a8063383858d8d8d8d604051808873ffffffffffffffffffffffffffffffffffffffff1681526020018773ffffffffffffffffffffffffffffffffffffffff1681526020018681526020018573ffffffffffffffffffffffffffffffffffffffff168152602001848152602001806020018281038252848482818152602001925080828437600081840152601f19601f8201169050808301925050509850505050505050505060405180910390a150505050505050505050565b60016020528060005260406000206000915054906101000a900460ff1681565b6000806105b58686868080601f016020809104026020016040519081016040528093929190818152602001838380828437600081840152601f19601f820116905080830192505050505050506107aa565b90504283101561062d576040517f08c379a00000000000000000000000000000000000000000000000000000000081526004018080602001828103825260188152602001807f5472616e73616374696f6e2068617320657870697265642e000000000000000081525060200191505060405180910390fd5b60016000808282540192505081905550600160008273ffffffffffffffffffffffffffffffffffffffff1673ffffffffffffffffffffffffffffffffffffffff16815260200190815260200160002060009054906101000a900460ff166106fc576040517f08c379a000000000000000000000000000000000000000000000000000000000815260040180806020018281038252600f8152602001807f496e76616c6964207369676e65722e000000000000000000000000000000000081525060200191505060405180910390fd5b3373ffffffffffffffffffffffffffffffffffffffff168173ffffffffffffffffffffffffffffffffffffffff16141561079e576040517f08c379a000000000000000000000000000000000000000000000000000000000815260040180806020018281038252600f8152602001807f496e76616c6964207369676e65722e000000000000000000000000000000000081525060200191505060405180910390fd5b80915050949350505050565b60006041825114610823576040517f08c379a00000000000000000000000000000000000000000000000000000000081526004018080602001828103825260208152602001807f496e76616c6964207369676e6174757265202d2077726f6e67206c656e67746881525060200191505060405180910390fd5b6000806000602085015192506040850151915060ff6041860151169050601b8160ff16101561085357601b810190505b7f7fffffffffffffffffffffffffffffff5d576e7357a4501ddfe92f46681b20a08260001c11156108cf576040517f08c379a000000000000000000000000000000000000000000000000000000000815260040180806020018281038252602281526020018061093f6022913960400191505060405180910390fd5b60018682858560405160008152602001604052604051808581526020018460ff1681526020018381526020018281526020019450505050506020604051602081039080840390855afa158015610929573d6000803e3d6000fd5b5050506020604051035193505050509291505056fe45434453413a20696e76616c6964207369676e6174757265202773272076616c7565a264697066735822122046cea3691503e4954567524671de4acb17f477cd8dc1fad0a43ffd0db1c300b964736f6c63430007040033",
  "compiler": {
    "name": "solc",
    "version": "0.7.4+commit.3f05b770.Emscripten.clang",
    "optimizer": {
      "enabled": false,
      "runs": 200
    },
    "evmVersion": "petersburg"
  }
}