{
  "fileName": "TestContract.sol",
  "contractName": "TestContract",
  "source": "// SPDX-License-Identifier: UNLICENSED\n\npragma solidity 0.7.4;\n\ncontract TestContract {\n    uint public i;\n\n    function callMe(uint j) external {\n        i += j;\n    }\n\n    function getData(uint _data) external pure returns (bytes memory) {\n        return abi.encodeWithSignature(\"callMe(uint256)\", _data);\n    }\n}",
  "sourcePath": "contracts/TestContract.sol",
  "abi": [
    {
      "inputs": [
        {
          "internalType": "uint256",
          "name": "j",
          "type": "uint256"
        }
      ],
      "name": "callMe",
      "outputs": [],
      "stateMutability": "nonpayable",
      "type": "function"
    },
    {
      "inputs": [
        {
          "internalType": "uint256",
          "name": "_data",
          "type": "uint256"
        }
      ],
      "name": "getData",
      "outputs": [
        {
          "internalType": "bytes",
          "name": "",
          "type": "bytes"
        }
      ],
      "stateMutability": "pure",
      "type": "function"
    },
    {
      "inputs": [],
      "name": "i",
      "outputs": [
        {
          "internalType": "uint256",
          "name": "",
          "type": "uint256"
        }
      ],
      "stateMutability": "view",
      "type": "function"
    }
  ],
  "bytecode": "0x608060405234801561001057600080fd5b5061021e806100206000396000f3fe608060405234801561001057600080fd5b50600436106100415760003560e01c80630178fe3f14610046578063e5aa3d58146100ed578063e73620c31461010b575b600080fd5b6100726004803603602081101561005c57600080fd5b8101908080359060200190929190505050610139565b6040518080602001828103825283818151815260200191508051906020019080838360005b838110156100b2578082015181840152602081019050610097565b50505050905090810190601f1680156100df5780820380516001836020036101000a031916815260200191505b509250505060405180910390f35b6100f56101d0565b6040518082815260200191505060405180910390f35b6101376004803603602081101561012157600080fd5b81019080803590602001909291905050506101d6565b005b606081604051602401808281526020019150506040516020818303038152906040527fe73620c3000000000000000000000000000000000000000000000000000000007bffffffffffffffffffffffffffffffffffffffffffffffffffffffff19166020820180517bffffffffffffffffffffffffffffffffffffffffffffffffffffffff83818316178352505050509050919050565b60005481565b8060008082825401925050819055505056fea2646970667358221220331bd0136010554f70d8273c47a3fb51b84e372de159dbccd4cebace9419e71064736f6c63430007040033",
  "compiler": {
    "name": "solc",
    "version": "0.7.4+commit.3f05b770.Emscripten.clang",
    "optimizer": {
      "enabled": false,
      "runs": 200
    },
    "evmVersion": "petersburg"
  }
}